:1000000019C044C212C27EC2C8C214C32EC0DDC110
:100010002CC02BC02AC029C028C027C026C025C09C
:1000200024C023C0CDC042C16DC11FC01EC01DC0B1
:100030001CC01BC011241FBECFEFD2E0DEBFCDBF5E
:1000400011E0A0E0B1E0ECEEF6E002C005900D9208
:10005000A630B107D9F711E0A6E0B1E001C01D92CA
:10006000A332B107E1F702D03FC3CACF1F9339D003
:100070007BD09AD0789411E09091060191FF30C026
:10008000809109018093000140910A0130910B0198
:1000900020910C019D7F90930601109268001BBA7D
:1000A0001DBA1CBA80910001833319F0893921F7F8
:1000B0000AC020930401309302011092030140937F
:1000C000010133D0D9CF2093040130930201109263
:1000D0000301409301011DBB1CBA80930D01CCCFDD
:1000E000FFCF80E184B917B81AB88FEE85B98FEFCA
:1000F00088B98BB985E880936400109280001092D3
:10010000820084EF8093890083E2809388008DE0F1
:100110008093810082E08093B00083EC8093B300F1
:100120008AE08093690001D0089523E320930001C1
:1001300093E09DBB1CBA80E880936D0088E08093BB
:100140006C0080936B0087E0809368001BBA10926C
:10015000B10020930D0190930E01109210011092A6
:1001600011018093150108951092C50089E18093D3
:10017000C40080E48093C0008EE08093C20010929F
:100180001F0110921E018FEF9FEF90930801809343
:100190000701109215010895E1ECF0E08081886676
:1001A000808310921E010895E1ECF0E08081806967
:1001B00080838FEF9FEF909308018093070108954C
:1001C0001F920F920FB60F9211242F933F934F93CC
:1001D0005F936F937F938F939F93AF93BF93EF93AF
:1001E000FF9390911F016091C600E92FF0E0EA5E55
:1001F000FE4F6083809116018C3C59F08FEF9FEF8A
:10020000909308018093070110921F01109216012C
:100210003CC0963018F487E091E09AD080911F019D
:10022000873081F58091070190911D018927809386
:1002300007018091080190911C0189278093080192
:100240008091070190910801892B71F4A8E1B1E038
:1002500020E030E08D91F901E75FFE4F80832F5F52
:100260003F4F24303105B1F78091060182608093C1
:1002700006018FEF9FEF9093080180930701109282
:100280001F0103C08F5F80931F01FF91EF91BF910A
:10029000AF919F918F917F916F915F914F913F911E
:1002A0002F910F900FBE0F901F9018951F920F92D5
:1002B0000FB60F9211248F939F93EF93FF9390911A
:1002C0001E0180911501981730F08091C100807C4B
:1002D0008093C1000EC0E92FF0E0E35FFE4F808104
:1002E0008093C60080911501981719F09F5F909335
:1002F0001E01FF91EF919F918F910F900FBE0F9074
:100300001F9018951F920F920FB60F9211248F9382
:100310009F93EF93FF9390911E0180911501981781
:1003200070F4E92FF0E0E35FFE4F80818093C60018
:1003300080911501981719F09F5F90931E01FF910E
:10034000EF919F918F910F900FBE0F901F90189576
:10035000FC0170E0808191816827792720E041E0ED
:1003600050EACB019695879560FD02C0BC0103C0A1
:10037000BC01642775272F5F283099F7718360834C
:100380000895CF93DF93DC014FEF5FEF70E0C1E0A2
:10039000D0EAFD01E70FF11D8081282F30E02427EE
:1003A000352780E0A9015695479520FF02C04C27CC
:1003B0005D278F5F883011F09A01F4CF7F5F671758
:1003C00040F7CA01DF91CF9108951F920F920FB6A7
:1003D0000F9211242F933F934F935F936F937F93CB
:1003E0008F939F93AF93BF93EF93FF9380910001FF
:1003F000833319F0893941F402C097DE05C081E0EA
:100400008DBB1CBA1092B100FF91EF91BF91AF91DB
:100410009F918F917F916F915F914F913F912F911C
:100420000F900FBE0F901F9018951F920F920FB64E
:100430000F9211242F933F934F935F936F937F936A
:100440008F939F93AF93BF93EF93FF93809100019E
:10045000833351F481E280930F018AE48093120187
:1004600080E78093130198DE30D1FF91EF91BF9127
:10047000AF919F918F917F916F915F914F913F913C
:100480002F910F900FBE0F901F9018951F920F92F3
:100490000FB60F9211242F933F934F935F936F9357
:1004A0007F938F939F93AF93BF93EF93FF9380912D
:1004B0000001833319F0893991F408C080E38093F7
:1004C0000F018FE48093120180E207C080E38093E4
:1004D0000F0187E58093120188E3809313015CDEAE
:1004E000F4D0FF91EF91BF91AF919F918F917F9148
:1004F0006F915F914F913F912F910F900FBE0F9091
:100500001F9018951F920F920FB60F9211242F93E0
:100510003F934F935F936F937F938F939F93AF938B
:10052000BF93EF93FF9393B180910001833311F553
:10053000892F80958770823061F0843091F081300E
:10054000D9F481E380930F018FE88093120181E752
:100550000FC086E380930F018EE48093120180EC3C
:1005600007C087E380930F018EE88093120181E931
:100570008093130111DEA9D0FF91EF91BF91AF914C
:100580009F918F917F916F915F914F913F912F91AB
:100590000F900FBE0F901F9018951F920F920FB6DD
:1005A0000F9211242F933F934F935F936F937F93F9
:1005B0008F939F93AF93BF93EF93FF9396B18091E7
:1005C0000001833321F5892F80958770823061F097
:1005D0008430A1F08130E9F482E380930F018FE849
:1005E0008093120181E811C08EE48093120180E3B0
:1005F0008093130185E380930F0109C088E3809302
:100600000F018DE88093120181EA80931301C4DD0C
:100610005CD0FF91EF91BF91AF919F918F917F91AE
:100620006F915F914F913F912F910F900FBE0F905F
:100630001F9018951F920F920FB60F9211242F93AF
:100640003F934F935F936F937F938F939F93AF935A
:10065000BF93EF93FF9389B190910001933311F50C
:100660008095807782958F70823059F0843089F040
:100670008130D1F490930F018FE48093120180EDCB
:100680000FC084E380930F018EE88093120181E60E
:1006900007C089E380930F018DE48093120180EFFE
:1006A0008093130179DD11D0FF91EF91BF91AF914C
:1006B0009F918F917F916F915F914F913F912F917A
:1006C0000F900FBE0F901F901895E0E7F0E010829A
:1006D00082E083BD1DBA109268001092B200808340
:0C06E00087E08093B1000895F894FFCFEC
:0606EC00330BEE022300B7
:00000001FF
