:1000000010C01DC01CC01BC01AC019C018C017C02A
:1000100016C015C014C013C050C011C010C00FC00E
:100020000EC011241FBECFEDCDBF10E0A0E6B0E0A2
:1000300001C01D92A236B107E1F756D0AFC0E0CFA4
:1000400090E0C19887FF02C0C09A01C0C098C19AD1
:100050009F5F983011F0880FF4CFC1980895DF9812
:10006000C29A87B3836087BB88E0EADF88E0E8DF75
:1000700080E0E6DF80E0E4DF80E0E2DF87EEE0DFE3
:100080008BEBDEDF80E0DCDF80E0DADF80E0D8DFF2
:1000900087EED6DF8BEBD4DF83E4D2DF8EE4D0DFD4
:1000A00080E2CEDFC298DF9A8AEF90E00197F1F705
:1000B000089587B3836087BB08951F920F920FB690
:1000C0000F9211248F93A895809161008F5F809388
:1000D000610081E08093600080E888B98F910F9083
:1000E0000FBE0F901F901895DF92EF92FF920F9323
:1000F0001F93CF93DF9380E090E048D081BF8BE0E7
:1001000080B987E087BB18BA88E98ABB80E18BBBDE
:1001100086E081B988E181BD89E281BD10926000ED
:1001200085B7877E85BF85B7806285BF10926100E5
:1001300098E8E92E93E1F92E8BE1D82EC4ECD9E0B2
:100140000AEC18E0DB9810926000C7010197F1F704
:10015000D8B8CE010197F1F7789401C088958091C5
:1001600060008823D9F3F894DB9ACE010197F1F768
:1001700076DF87EE65DF8BEB63DF8091610060DF08
:10018000DF98C8010197F1F7A895DCCFE199FECF80
:100190001FBA8EBBE09A99278DB30895F894FFCFCC
:00000001FF
