:1000000012C017C016C015C014C013C012C011C052
:1000100010C00FC00EC00DC00CC00BC00AC009C07C
:1000200008C007C006C011241FBECFEDCDBF3FD012
:1000300075C0E6CF90E0919887FF02C0909A01C00A
:100040009098919A9F5F983011F0880FF4CF919813
:10005000089581B3856081BB9598D89A88E0EADFDE
:1000600088E0E8DF80E0E6DF80E0E4DF80E0E2DFF8
:1000700087EEE0DF8BEBDEDF80E0DCDF80E0DADFE5
:1000800080E0D8DF87EED6DF8AEAD4DF83E4D2DFF0
:100090008EECD0DF81E2CEDFD8980000959A81B354
:1000A0008A7F81BB8AEF90E00197F1F7089580E0A5
:1000B00090E02CD081BF81E08ABB83E087BB8BE6D8
:1000C00081BB1BBA8FEF88BB8FE182BB969A88E811
:1000D00093E10197F1F7BDDF2AEF30E0C09AC19AB2
:1000E000C9010197F1F706C0C09891980000919A54
:1000F00000009198C999F8CF06C0C1989198000066
:10010000919A00009198CC9BE9CFF7CFE199FECF6F
:100110001FBA8EBBE09A99278DB30895F894FFCF4C
:00000001FF
