:020000020000FC
:1000000019C019C2189595C2B2C2BFC24EC09FC3D3
:100010001895189518951895189518951895189578
:10002000189518953AC355C37BC31895189518951C
:1000300018951895F894882400E11FEF2FEE04B965
:1000400087B88AB825B918B91BB912E020E838E09A
:100050001093690020936D0030936C0030936B0017
:1000600045E84093640004B784BE0170B9F0C0E075
:10007000D1E08992D330E8F36BE060932E0193E2F4
:1000800090932F01AEEEB2E0A0932A01B0932B0122
:1000900081ED91E080932C0190932D01A895C8E10A
:1000A000D9E6C0936000D093600063E274EF809261
:1000B00080008092820070938900609388008DE0B8
:1000C0008093810099249092310190923201909214
:1000D00033019092340162E073EC6093B00070934E
:1000E000B3009092B10022243324210191E09DBB02
:1000F00090926800C0913001C33311F0C53521F4EE
:10010000A7E0A093680005C0C93909F0572E272E33
:10011000372EBFEFBBBBBCBBB7BB8FEF92E08DBF31
:100120009EBF00D378948824C0913001C33371F00E
:10013000C53561F0CA3A51F02C9AC939C1F0C636BA
:10014000B1F0F894C6E6C0933001AFCF2C98F89484
:1001500086B1807183298093350179B178707229D5
:1001600009F4B2D080913501882309F4FFD09EB301
:10017000953509F4D7CF80911601882349F08092F4
:10018000160160911701709118018091190126C024
:1001900080911A01882349F080921A0160911B0115
:1001A00070911C0180911D0119C08091120188235A
:1001B00049F08092120160911301709114018091B5
:1001C00015010CC080911E01882381F180921E01CF
:1001D00060911F017091200180912101C091300137
:1001E000C0930A0160930C0170930D0180930E017E
:1001F000A895A3E0B5E0A0930B01BBBDEAE0F1E058
:100200007F0155E55EBBF894CC24C092C50049E15E
:100210004093C40050E45093C0005EE85093C20085
:1002200048E24093C100C094DC2C7CCF9AB5953550
:10023000E1F7F8946AEA6ABD6091000170910201E9
:10024000633319F4793989F7D3CF6C3C71F7709324
:10025000300160900301772405EF18E2179DC0017B
:10026000069D912C169D900C811D981D079D900C4C
:10027000811D981D80932E016090050177240BEE5F
:1002800011E5179DC001069D912C169D900C811DB6
:10029000981D079D900C811D981D80932F016090E3
:1002A0000401862C7724880C771C880C771C880C1A
:1002B000771C80922A0170922B0105E0609E0092CB
:1002C0002C0110922D01F1CEA895A0918400B0913F
:1002D0008500A951B04010F4AC5DBB40A09326014D
:1002E000B093270161E222242394C33361F1439444
:1002F0002C2E70913201609332017F7321F07033A4
:1003000021F0606820C060641EC06090240170907D
:100310002501A619B70910F4AC5DBB4089E891E44A
:10032000B99F3001A89F912CB89F900C611C781C3C
:10033000A99F900C611C781CA0912A01B0912B01FF
:100340006A167B0620F060902C0170902D0160935E
:10035000330160931B0170921C0160921D01609338
:100360001A01552450926800539455C0A895A09145
:100370008400B0918500A951B04010F4AC5DBB4041
:10038000A0932201B093230162E233243394C33358
:1003900089F1C53509F0189553943C2E70913401BC
:1003A000609332017F7331F0713310F07A3320F0B3
:1003B000606820C060641EC06090280170902901B0
:1003C000A619B70910F4AC5DBB4089E891E4B99F68
:1003D0003001A89F912CB89F900C611C781CA99F9C
:1003E000900C611C781CA0912A01B0912B016A1617
:1003F0007B0620F060902C0170902D0160933101FC
:1004000060931301709214016092150160931201C0
:1004100044244DBA439472E073BD8FE78093B200D9
:100420007093700097E09093B100AFEFA7BBACBBA7
:10043000ABBB99241895A895AFB600918400109194
:10044000850030E3C33331F470902F0160902E01AA
:10045000462C54C00093240110932501C535E9F0C2
:1004600040902E01C93939F0C63629F0252D2230A9
:1004700020F05C2E02C05524539420913401309317
:1004800034012F7311F1213388F02A3308F00EC0A4
:1004900060902801709029011EC04C2E20913101DE
:1004A000309331012F7341F0223289F0306860902F
:1004B0002C0170902D0122C020913401222329F0BB
:1004C000609028017090290106C03064F0CF6090E0
:1004D0002201709023010619170910F40C5D1B40CE
:1004E000D9E821E4129F30010D9F212C1D9F200C83
:1004F000611C781C029F200C611C781C2224309304
:1005000032013093170170921801609219013093F3
:100510001601992402E003BD9DBA90926800909262
:10052000B2000093700017E01093B10017BBAFBE8C
:100530001895A895AFB623B123FD09C0277031E304
:10054000263081F137E3233069F136E32BC099245B
:10055000539412E013BD9092B200109370009092E9
:10056000680007E00093B10007BBAFBE1895A895DF
:10057000AFB626B123FDEBCF277032E3263091F0E2
:1005800038E3233079F035E30DC0A895AFB629B133
:1005900027FDDDCF207733E3203621F039E3203308
:1005A00009F034E30091840010918500C33331F4E5
:1005B00070902F0160902E01562C54C05C2E009339
:1005C000280110932901C535D9F0C93941F04A995C
:1005D00003C0442009F0BBCFC63619F011C05090BB
:1005E0002E014424439420913201309332012F7321
:1005F00001F1203379F460902401709025011FC02F
:100600004424439420913301309333012F7341F0FC
:10061000213289F0306860902C0170902D0122C049
:1006200020913201222329F060902401709025014D
:1006300006C03064F0CF6090260170902701061943
:10064000170910F40C5D1B40D9E821E4129F30011A
:100650000D9F312C1D9F300C611C781C029F300CAB
:10066000611C781C33243093340130931F01709245
:1006700020016092210130931E01992402E003BD04
:100680009DBA909268009092B2000093700017E0BB
:100690001093B10017BBAFBE1895A895AFB64091A7
:1006A000C6005B2DE0E0F1E0E50FF81D40835395B7
:1006B000B52E573008F426C0583080F1F09106016D
:1006C000E09107014AEAEC15FD0509F445E54ABD4C
:1006D00029C0A895AFB65BB555233AF009F00BC019
:1006E000D092C60051505BBD19C0C092C60048E40C
:1006F0004093C10013C051505BBDF701419140933D
:10070000C6007F01C42649E0E1E0F0EA4A9531F0F5
:10071000D694C794D8F7CE26DF26F8CFAFBE18956B
:10072000A895AFB6CC24CEBABB24C092C50049E18F
:100730004093C40050E45093C0004EE84093C20080
:1007400050E95093C100C094DC2CAFBE1895A89519
:10075000AFB6222009F02A94332009F03A949394FA
:10076000941438F0DDB3D13019F0D1E0DDBBDCBB3F
:100770004424951448F0D0916800D73021F0D7E098
:10078000D0936800DBBB5524D0912F019D1620F03B
:0C0790008DBA8092680096CCAFBE189520
:00000001FF
